{
  "contractName": "ArraysContract",
  "abi": [
    {
      "constant": false,
      "inputs": [],
      "name": "testArray",
      "outputs": [],
      "payable": false,
      "stateMutability": "nonpayable",
      "type": "function",
      "signature": "0x2283bffd"
    }
  ],
  "bytecode": "0x60806040526040805190810160405280600160ff168152602001600260ff168152506000906002610031929190610044565b5034801561003e57600080fd5b506100ae565b8260038101928215610078579160200282015b82811115610077578251829060ff16905591602001919060010190610057565b5b5090506100859190610089565b5090565b6100ab91905b808211156100a757600081600090555060010161008f565b5090565b90565b61045f806100bd6000396000f3fe608060405260043610610041576000357c0100000000000000000000000000000000000000000000000000000000900463ffffffff1680632283bffd14610046575b600080fd5b34801561005257600080fd5b5061005b61005d565b005b600860405190808252806020026020018201604052801561008d5781602001602082028038833980820191505090505b50600490805190602001906100a39291906101f7565b50606060405190810160405280600160000b60000b8152602001600260000b8152602001600360000b81525060039060036100df92919061029d565b5060608060086040519080825280602002602001820160405280156101135781602001602082028038833980820191505090505b509150606060405190810160405280600160ff168152602001600260ff168152602001600360ff16815250600090600361014e929190610347565b5061015761038c565b60408051908101604052806001815260200160028152509050600081600060028110151561018157fe5b602002018181525050600181600160028110151561019b57fe5b60200201818152505060018260008151811015156101b557fe5b9060200190602002019060ff16908160ff168152505060028260018151811015156101dc57fe5b9060200190602002019060ff16908160ff1681525050505050565b82805482825590600052602060002090601f0160209004810192821561028c5791602002820160005b8382111561025d57835183826101000a81548160ff0219169083151502179055509260200192600101602081600001049283019260010302610220565b801561028a5782816101000a81549060ff021916905560010160208160000104928301926001030261025d565b505b50905061029991906103ae565b5090565b82805482825590600052602060002090601f016020900481019282156103365791602002820160005b8382111561030757835183826101000a81548160ff021916908360000b60ff16021790555092602001926001016020816000010492830192600103026102c6565b80156103345782816101000a81549060ff0219169055600101602081600001049283019260010302610307565b505b50905061034391906103de565b5090565b826003810192821561037b579160200282015b8281111561037a578251829060ff1690559160200191906001019061035a565b5b509050610388919061040e565b5090565b6040805190810160405280600290602082028038833980820191505090505090565b6103db91905b808211156103d757600081816101000a81549060ff0219169055506001016103b4565b5090565b90565b61040b91905b8082111561040757600081816101000a81549060ff0219169055506001016103e4565b5090565b90565b61043091905b8082111561042c576000816000905550600101610414565b5090565b9056fea165627a7a723058202f2cd9bdbf586958fc9421a84ea9f3ab7f8938fc8a6c10a6cc5a0d01e307df740029",
  "source": "pragma solidity >=0.4.24;\n\ncontract ArraysContract {\n\n    // Elementary type array in storage\n    // Static Array with size 3 of type int\n    int[3]     staticIntArray = [1,2];    // Last element set to 0\n    // Dynamic array of type int8\n    int8[]     dynamicIntArray;\n    // Dynamic array of type bool\n    bool[]     dynamicBoolArray;\n\n    function testArray() public {\n        // Allocate memory for 8 elements to the dynamic bool storage array\n        dynamicBoolArray = new bool[](8);\n        // Allocate memory and initialize elements in the int array\n        // Explicit conversion is needed from uint8 to int8\n        dynamicIntArray = [int8(1),2,3];\n        // This will work fine, since we are inside a function\n        uint8[] memory memoryArray; // A Dynamic memory array\n        // Allocation with assignment not allowed for dynamic memory arrays\n        // memoryArray = [1,2,3];\n        uint8[] memory dynamicMemoryArray;  // A Dynamic memory array\n        // Assignment of dynamic NOT allowed\n        //dynamicMemoryArray = [uint8(1),2];\n        memoryArray = new uint8[](8);\n        // push() not allowed for memory array\n        // memoryArray.push(1);\n        // memoryArray.length=6;\n\n        /** Examples of array initialization with assignment below */\n\n        // Static storage array assignment is OK\n        // Compile time size check is carried out\n        // so assignment to [1,2,3,4] will fail below\n        staticIntArray = [1,2,3];\n\n\n        // Static memory array\n        uint[2] memory  staticMemoryArray;\n\n        // This is  allowed - make sure the type is matching\n        // staticMemoryArray is of type uint\n        staticMemoryArray = [uint(1),2];\n\n        // This is allowed\n        staticMemoryArray[0] = 0;\n        staticMemoryArray[1] = 1;\n\n        dynamicMemoryArray[0] = 1;\n        dynamicMemoryArray[1] = 2;\n    }\n}\n",
  "sourcePath": "/Users/jose.morales/Documents/Blockchain/Content/solidity/contracts/ArraysContract.sol",
  "compiler": {
    "name": "solc",
    "version": "0.5.0+commit.1d4f565a.Emscripten.clang"
  },
  "schemaVersion": "3.0.1",
  "updatedAt": "2019-01-30T13:54:57.918Z",
  "devdoc": {
    "methods": {}
  },
  "userdoc": {
    "methods": {}
  }
}