{
  "contractName": "BaseContract",
  "abi": [
    {
      "constant": true,
      "inputs": [],
      "name": "value",
      "outputs": [
        {
          "name": "",
          "type": "uint256"
        }
      ],
      "payable": false,
      "stateMutability": "view",
      "type": "function"
    },
    {
      "inputs": [
        {
          "name": "amount",
          "type": "uint256"
        }
      ],
      "payable": false,
      "stateMutability": "nonpayable",
      "type": "constructor"
    },
    {
      "constant": false,
      "inputs": [
        {
          "name": "amount",
          "type": "uint256"
        }
      ],
      "name": "deposit",
      "outputs": [],
      "payable": false,
      "stateMutability": "nonpayable",
      "type": "function"
    },
    {
      "constant": false,
      "inputs": [
        {
          "name": "amount",
          "type": "uint256"
        }
      ],
      "name": "withdraw",
      "outputs": [],
      "payable": false,
      "stateMutability": "nonpayable",
      "type": "function"
    }
  ],
  "bytecode": "0x608060405234801561001057600080fd5b506040516020806101ab8339810180604052602081101561003057600080fd5b81019080805190602001909291905050508060008190555050610153806100586000396000f3fe608060405260043610610057576000357c0100000000000000000000000000000000000000000000000000000000900463ffffffff1680632e1a7d4d1461005c5780633fa4f24514610097578063b6b55f25146100c2575b600080fd5b34801561006857600080fd5b506100956004803603602081101561007f57600080fd5b81019080803590602001909291905050506100fd565b005b3480156100a357600080fd5b506100ac61010f565b6040518082815260200191505060405180910390f35b3480156100ce57600080fd5b506100fb600480360360208110156100e557600080fd5b8101908080359060200190929190505050610115565b005b80600080828254039250508190555050565b60005481565b8060008082825401925050819055505056fea165627a7a723058205fbf4090718a4a71b58d8ea6b5b2f1ee20f68542fe0b0ee0b63fed025316cfb00029",
  "source": "pragma solidity >=0.4.24;\n\nimport \"./MainContract.sol\";\n\n// We have an ContractInterface, that has a function\n// sendmoney...but there is no function body\ninterface ContractInterface {\n    function sendMoney (uint amount, address _address) external returns (bool);\n}\n\n// This is a BaseContract, that has its constructor, and deposit and withdraw functions...\ncontract BaseContract {\n\n    uint public value;\n\n    // Anytime base contract has a constructor, we will need to initialize this using\n    // the derived contracts constructor function\n\n    constructor (uint amount) public {\n        value = amount;\n    }\n\n    function deposit (uint amount) public {\n        value += amount;\n    }\n\n    function withdraw (uint amount) public {\n        value -= amount;\n    }\n}\n\n// This shows multiple inheritance\n\n// This will give an error...since baseContract has a constructor that we need to initialize\n// contract myContract is baseContract, interfaceContract {\n\ncontract InheritanceContract is BaseContract(100), ContractInterface, MainContract(100) {\n\n    string public contractName;\n\n    constructor (string memory _n) public {\n        contractName = _n;\n    }\n    function getValue () public view returns (uint) {\n        return value;\n    }\n\n    // Function that allows you to convert an address into a payable address\n    function _make_payable(address x) internal pure returns (address payable) {\n        return address(uint160(x));\n    }\n\n    // This function has to be implemented, since it is unimplemented in the interfaceContract\n    function sendMoney (uint amount, address _address) public returns (bool) {\n        _make_payable(_address).transfer(amount);\n    }\n}\n",
  "sourcePath": "/Users/jose.morales/Documents/Blockchain/Content/solidity/contracts/InheritanceContract.sol",
  "compiler": {
    "name": "solc",
    "version": "0.5.0+commit.1d4f565a.Emscripten.clang"
  },
  "schemaVersion": "3.0.1",
  "updatedAt": "2019-01-30T13:47:41.722Z",
  "devdoc": {
    "methods": {}
  },
  "userdoc": {
    "methods": {}
  }
}