{
  "contractName": "BasicDataType",
  "abi": [
    {
      "constant": true,
      "inputs": [],
      "name": "flag",
      "outputs": [
        {
          "name": "",
          "type": "bool"
        }
      ],
      "payable": false,
      "stateMutability": "view",
      "type": "function",
      "signature": "0x890eba68"
    },
    {
      "constant": true,
      "inputs": [],
      "name": "owner",
      "outputs": [
        {
          "name": "",
          "type": "address"
        }
      ],
      "payable": false,
      "stateMutability": "view",
      "type": "function",
      "signature": "0x8da5cb5b"
    },
    {
      "constant": false,
      "inputs": [
        {
          "name": "addr",
          "type": "address"
        }
      ],
      "name": "test",
      "outputs": [
        {
          "name": "",
          "type": "uint256"
        }
      ],
      "payable": false,
      "stateMutability": "nonpayable",
      "type": "function",
      "signature": "0xbb29998e"
    }
  ],
  "bytecode": "0x608060405260ff6000806101000a81548160ff021916908360ff1602179055506001600060156101000a81548160ff02191690831515021790555034801561004657600080fd5b50610239806100566000396000f3fe608060405260043610610057576000357c0100000000000000000000000000000000000000000000000000000000900463ffffffff168063890eba681461005c5780638da5cb5b1461008b578063bb29998e146100e2575b600080fd5b34801561006857600080fd5b50610071610147565b604051808215151515815260200191505060405180910390f35b34801561009757600080fd5b506100a061015a565b604051808273ffffffffffffffffffffffffffffffffffffffff1673ffffffffffffffffffffffffffffffffffffffff16815260200191505060405180910390f35b3480156100ee57600080fd5b506101316004803603602081101561010557600080fd5b81019080803573ffffffffffffffffffffffffffffffffffffffff169060200190929190505050610180565b6040518082815260200191505060405180910390f35b600060159054906101000a900460ff1681565b600060019054906101000a900473ffffffffffffffffffffffffffffffffffffffff1681565b600081600060016101000a81548173ffffffffffffffffffffffffffffffffffffffff021916908373ffffffffffffffffffffffffffffffffffffffff160217905550600060019054906101000a900473ffffffffffffffffffffffffffffffffffffffff1673ffffffffffffffffffffffffffffffffffffffff1631600181905550600154905091905056fea165627a7a7230582041c6f952ee7b2e57786eb2aaa131189e9616774c8e23fa1ebdcc35e6984d6b920029",
  "source": "pragma solidity >=0.4.24;\n\ncontract BasicDataType {\n\n    uint8   a = 255;             // 1 bytes unsigned integer\n    address public owner;        // Address types variable, called owner\n    bool  public flag = true;\n    uint    ownerInitialBalance; // uint type variable\n\n    // Function takes in an address, and returns the balance of this address\n    function test (address addr) public returns (uint) {\n        owner = addr;\n        ownerInitialBalance = owner.balance;\n        // if(1){ } will not compile\n        if (1 > 0) {\n            // This will work because expression evaluates to bool\n            // Do something\n        }\n        return ownerInitialBalance;\n    }\n}",
  "sourcePath": "/Users/jose.morales/Documents/Blockchain/Content/solidity/contracts/BasicDataType.sol",
  "compiler": {
    "name": "solc",
    "version": "0.5.0+commit.1d4f565a.Emscripten.clang"
  },
  "schemaVersion": "3.0.1",
  "updatedAt": "2019-01-30T13:54:57.904Z",
  "devdoc": {
    "methods": {}
  },
  "userdoc": {
    "methods": {}
  }
}