{
  "contractName": "EnumsContract",
  "abi": [
    {
      "constant": true,
      "inputs": [
        {
          "name": "arg",
          "type": "uint8"
        }
      ],
      "name": "getNames",
      "outputs": [
        {
          "name": "",
          "type": "string"
        }
      ],
      "payable": false,
      "stateMutability": "pure",
      "type": "function",
      "signature": "0x575e3ab3"
    }
  ],
  "bytecode": "0x608060405234801561001057600080fd5b5061028c806100206000396000f3fe608060405260043610610041576000357c0100000000000000000000000000000000000000000000000000000000900463ffffffff168063575e3ab314610046575b600080fd5b34801561005257600080fd5b506100826004803603602081101561006957600080fd5b81019080803560ff1690602001909291905050506100fd565b6040518080602001828103825283818151815260200191508051906020019080838360005b838110156100c25780820151818401526020810190506100a7565b50505050905090810190601f1680156100ef5780820380516001836020036101000a031916815260200191505b509250505060405180910390f35b60606000600381111561010c57fe5b60ff168260ff161415610156576040805190810160405280600381526020017f4a6f650000000000000000000000000000000000000000000000000000000000815250905061025b565b6001600381111561016357fe5b60ff168260ff1614156101ad576040805190810160405280600681526020017f4272616e64790000000000000000000000000000000000000000000000000000815250905061025b565b600260038111156101ba57fe5b60ff168260ff161415610204576040805190810160405280600681526020017f526163686e610000000000000000000000000000000000000000000000000000815250905061025b565b60038081111561021057fe5b60ff168260ff16141561025a576040805190810160405280600781526020017f4a65737369636100000000000000000000000000000000000000000000000000815250905061025b565b5b91905056fea165627a7a72305820786ead4da4aa403ff3540f89e97850218f0ec8b582b15363848703ff5b88e7460029",
  "source": "pragma solidity >=0.4.24;\n\ncontract EnumsContract {\n\n    // Create an Enumeration\n    enum names {Joe, Brandy, Rachna, Jessica}\n\n    // get the value at specified index\n    function getNames(uint8 arg) public pure returns (string memory){\n        if(arg == uint8(names.Joe)) return \"Joe\";\n        if(arg == uint8(names.Brandy)) return \"Brandy\";\n        if(arg == uint8(names.Rachna)) return \"Rachna\";\n        if(arg == uint8(names.Jessica)) return \"Jessica\";\n    }\n}",
  "sourcePath": "/Users/jose.morales/Documents/Blockchain/Content/solidity/contracts/EnumsContract.sol",
  "compiler": {
    "name": "solc",
    "version": "0.5.0+commit.1d4f565a.Emscripten.clang"
  },
  "schemaVersion": "3.0.1",
  "updatedAt": "2019-01-30T13:54:57.909Z",
  "devdoc": {
    "methods": {}
  },
  "userdoc": {
    "methods": {}
  }
}