{
  "contractName": "EventsContract",
  "abi": [
    {
      "constant": true,
      "inputs": [],
      "name": "highBidder",
      "outputs": [
        {
          "name": "bidder",
          "type": "address"
        },
        {
          "name": "bidderName",
          "type": "string"
        },
        {
          "name": "bid",
          "type": "uint256"
        }
      ],
      "payable": false,
      "stateMutability": "view",
      "type": "function",
      "signature": "0x3ce123dc"
    },
    {
      "inputs": [],
      "payable": false,
      "stateMutability": "nonpayable",
      "type": "constructor",
      "signature": "constructor"
    },
    {
      "anonymous": false,
      "inputs": [
        {
          "indexed": true,
          "name": "who",
          "type": "address"
        },
        {
          "indexed": false,
          "name": "name",
          "type": "string"
        },
        {
          "indexed": false,
          "name": "howmuch",
          "type": "uint256"
        }
      ],
      "name": "NewHighBid",
      "type": "event",
      "signature": "0xd7f5ff45ff6e232308acbf841d8134c8c65dd893722727b64eef24b489fb893d"
    },
    {
      "anonymous": false,
      "inputs": [
        {
          "indexed": true,
          "name": "who",
          "type": "address"
        },
        {
          "indexed": false,
          "name": "name",
          "type": "string"
        },
        {
          "indexed": false,
          "name": "howmuch",
          "type": "uint256"
        }
      ],
      "name": "BidFailed",
      "type": "event",
      "signature": "0xaab6e917b2089e850050512474058e20b2f6dfb93b76ac38d1921588535627d2"
    },
    {
      "constant": false,
      "inputs": [
        {
          "name": "bidderName",
          "type": "string"
        }
      ],
      "name": "bid",
      "outputs": [],
      "payable": true,
      "stateMutability": "payable",
      "type": "function",
      "signature": "0x7aef951c"
    }
  ],
  "bytecode": "0x608060405262069780420160005534801561001957600080fd5b50670de0b6b3a76400006001600201819055506106548061003b6000396000f3fe60806040526004361061004c576000357c0100000000000000000000000000000000000000000000000000000000900463ffffffff1680633ce123dc146100515780637aef951c1461011b575b600080fd5b34801561005d57600080fd5b506100666101d6565b604051808473ffffffffffffffffffffffffffffffffffffffff1673ffffffffffffffffffffffffffffffffffffffff16815260200180602001838152602001828103825284818151815260200191508051906020019080838360005b838110156100de5780820151818401526020810190506100c3565b50505050905090810190601f16801561010b5780820380516001836020036101000a031916815260200191505b5094505050505060405180910390f35b6101d46004803603602081101561013157600080fd5b810190808035906020019064010000000081111561014e57600080fd5b82018360208201111561016057600080fd5b8035906020019184600183028401116401000000008311171561018257600080fd5b91908080601f016020809104026020016040519081016040528093929190818152602001838380828437600081840152601f19601f8201169050808301925050505050505091929192905050506102a6565b005b60018060000160009054906101000a900473ffffffffffffffffffffffffffffffffffffffff1690806001018054600181600116156101000203166002900480601f0160208091040260200160405190810160405280929190818152602001828054600181600116156101000203166002900480156102965780601f1061026b57610100808354040283529160200191610296565b820191906000526020600020905b81548152906001019060200180831161027957829003601f168201915b5050505050908060020154905083565b600054421015610512576001600201543411156103e45733600160000160006101000a81548173ffffffffffffffffffffffffffffffffffffffff021916908373ffffffffffffffffffffffffffffffffffffffff16021790555080600180019080519060200190610319929190610583565b50346001600201819055503373ffffffffffffffffffffffffffffffffffffffff167fd7f5ff45ff6e232308acbf841d8134c8c65dd893722727b64eef24b489fb893d82346040518080602001838152602001828103825284818151815260200191508051906020019080838360005b838110156103a4578082015181840152602081019050610389565b50505050905090810190601f1680156103d15780820380516001836020036101000a031916815260200191505b50935050505060405180910390a261050d565b3373ffffffffffffffffffffffffffffffffffffffff167faab6e917b2089e850050512474058e20b2f6dfb93b76ac38d1921588535627d282346040518080602001838152602001828103825284818151815260200191508051906020019080838360005b83811015610464578082015181840152602081019050610449565b50505050905090810190601f1680156104915780820380516001836020036101000a031916815260200191505b50935050505060405180910390a26040517f08c379a00000000000000000000000000000000000000000000000000000000081526004018080602001828103825260128152602001807f5468726f7720616e20657863657074696f6e000000000000000000000000000081525060200191505060405180910390fd5b610580565b6040517f08c379a00000000000000000000000000000000000000000000000000000000081526004018080602001828103825260128152602001807f5468726f7720616e20657863657074696f6e000000000000000000000000000081525060200191505060405180910390fd5b50565b828054600181600116156101000203166002900490600052602060002090601f016020900481019282601f106105c457805160ff19168380011785556105f2565b828001600101855582156105f2579182015b828111156105f15782518255916020019190600101906105d6565b5b5090506105ff9190610603565b5090565b61062591905b80821115610621576000816000905550600101610609565b5090565b9056fea165627a7a72305820c01bd2404b4baaeeae7c7b88da2159d68bf7c4ae30e23a9afd25b5254ac8e2390029",
  "source": "pragma solidity >=0.4.24;\n\ncontract EventsContract {\n    // Represents the time when the bidding will end\n    uint biddingEnds = now + 5 days;\n\n    struct HighBidder {\n        address bidder;\n        string bidderName;\n        uint bid;\n    }\n\n    // Variable of type HighBidder\n    HighBidder public highBidder;\n\n    // Events emitted by contract\n    // Whenever a high bid is received\n    event NewHighBid(address indexed who, string name, uint howmuch);\n\n    // High bid preceded by this event\n    event BidFailed(address indexed who, string name, uint howmuch);\n\n    // Ensures that bid can be received i.e, auction not ended\n    modifier timed {\n        if(now < biddingEnds){\n            _;\n        } else {\n            /**throw an exception */\n            revert(\"Throw an exception\");\n        }\n    }\n\n    constructor() public {\n        // Starts the bidding at 1 ether\n        highBidder.bid = 1 ether;\n    }\n\n    \n    // Payable since ether should be coming along\n    // Timed, we need to end this bidding in 5 days\n    function bid(string memory bidderName) public payable timed {\n        if(msg.value > highBidder.bid) {\n            highBidder.bidder = msg.sender;\n            highBidder.bidderName = bidderName;\n            highBidder.bid = msg.value;\n            // Received a high bid - emit event\n            emit NewHighBid(msg.sender, bidderName, msg.value);\n        } else {\n            // Received bid less than high bid emit event\n            emit BidFailed(msg.sender, bidderName, msg.value);\n            // throwing exception would return the ethers\n            revert(\"Throw an exception\");\n        }\n    }\n}\n",
  "sourcePath": "/Users/jose.morales/Documents/Blockchain/Content/solidity/contracts/EventsContract.sol",
  "compiler": {
    "name": "solc",
    "version": "0.5.0+commit.1d4f565a.Emscripten.clang"
  },
  "schemaVersion": "3.0.1",
  "updatedAt": "2019-01-30T13:54:57.920Z",
  "devdoc": {
    "methods": {}
  },
  "userdoc": {
    "methods": {}
  }
}