{
  "contractName": "ExceptionsContract",
  "abi": [
    {
      "constant": true,
      "inputs": [],
      "name": "lastCaller",
      "outputs": [
        {
          "name": "",
          "type": "string"
        }
      ],
      "payable": false,
      "stateMutability": "view",
      "type": "function",
      "signature": "0x2113522a"
    },
    {
      "constant": false,
      "inputs": [
        {
          "name": "name",
          "type": "string"
        }
      ],
      "name": "revertBehavior",
      "outputs": [
        {
          "name": "",
          "type": "bool"
        }
      ],
      "payable": false,
      "stateMutability": "nonpayable",
      "type": "function",
      "signature": "0xd3660c1c"
    }
  ],
  "bytecode": "0x60806040526040805190810160405280600481526020017f6e6f6e65000000000000000000000000000000000000000000000000000000008152506000908051906020019061004f929190610062565b5034801561005c57600080fd5b50610107565b828054600181600116156101000203166002900490600052602060002090601f016020900481019282601f106100a357805160ff19168380011785556100d1565b828001600101855582156100d1579182015b828111156100d05782518255916020019190600101906100b5565b5b5090506100de91906100e2565b5090565b61010491905b808211156101005760008160009055506001016100e8565b5090565b90565b610443806101166000396000f3fe60806040526004361061004c576000357c0100000000000000000000000000000000000000000000000000000000900463ffffffff1680632113522a14610051578063d3660c1c146100e1575b600080fd5b34801561005d57600080fd5b506100666101c1565b6040518080602001828103825283818151815260200191508051906020019080838360005b838110156100a657808201518184015260208101905061008b565b50505050905090810190601f1680156100d35780820380516001836020036101000a031916815260200191505b509250505060405180910390f35b3480156100ed57600080fd5b506101a76004803603602081101561010457600080fd5b810190808035906020019064010000000081111561012157600080fd5b82018360208201111561013357600080fd5b8035906020019184600183028401116401000000008311171561015557600080fd5b91908080601f016020809104026020016040519081016040528093929190818152602001838380828437600081840152601f19601f82011690508083019250505050505050919291929050505061025f565b604051808215151515815260200191505060405180910390f35b60008054600181600116156101000203166002900480601f0160208091040260200160405190810160405280929190818152602001828054600181600116156101000203166002900480156102575780601f1061022c57610100808354040283529160200191610257565b820191906000526020600020905b81548152906001019060200180831161023a57829003601f168201915b505050505081565b60008160009080519060200190610277929190610372565b506000825114156102f0576040517f08c379a00000000000000000000000000000000000000000000000000000000081526004018080602001828103825260208152602001807f546865206c656e677468206f662074686520737472696e67206973207a65726f81525060200191505060405180910390fd5b60008251111515610369576040517f08c379a00000000000000000000000000000000000000000000000000000000081526004018080602001828103825260208152602001807f546865206c656e677468206f662074686520737472696e67206973207a65726f81525060200191505060405180910390fd5b60019050919050565b828054600181600116156101000203166002900490600052602060002090601f016020900481019282601f106103b357805160ff19168380011785556103e1565b828001600101855582156103e1579182015b828111156103e05782518255916020019190600101906103c5565b5b5090506103ee91906103f2565b5090565b61041491905b808211156104105760008160009055506001016103f8565b5090565b9056fea165627a7a72305820efb35f01c18806b9b1eccd878438e9febced5a1ec2b6c8d29835ba41f94cf9270029",
  "source": "pragma solidity >=0.4.24;\n\ncontract ExceptionsContract {\n\n    // Public variable lastCaller, with a value of none\n    string  public lastCaller = \"none\";\n\n    // Function revertBehavior that takes in a name as an argument,\n    //and sets the lastCaller variable to this argument received\n    function  revertBehavior(string memory name) public returns (bool) {\n        lastCaller = name;\n\n        // Check if length of the string is zero\n        // If the argument received has zero length, it throws an exception...\n        // Once an exception is thrown, the variable lastCaller rolls back to its initial value\n        if (bytes(name).length == 0) {\n            revert(\"The length of the string is zero\");\n        }\n        // This is the same thing...just using require to check the length of the input string.\n        // The code will only be exceuted if the length is greater than 0\n        // The above lines of code may be replaced with this\n        require(bytes(name).length > 0, \"The length of the string is zero\");\n\n        return true;\n    }\n\n}\n\n// So, what is going on is that in the function revertBehavior\n// lastCaller is being changed to the input argument\n// and then an exception is thrown, and the lastCaller reverts back\n// to its orginial value, thus nullifying the effect\n",
  "sourcePath": "/Users/jose.morales/Documents/Blockchain/Content/solidity/contracts/ExceptionsContract.sol",
  "compiler": {
    "name": "solc",
    "version": "0.5.0+commit.1d4f565a.Emscripten.clang"
  },
  "schemaVersion": "3.0.1",
  "updatedAt": "2019-01-30T13:54:57.907Z",
  "devdoc": {
    "methods": {}
  },
  "userdoc": {
    "methods": {}
  }
}