{
  "contractName": "FunctionsContract",
  "abi": [
    {
      "inputs": [
        {
          "name": "name",
          "type": "string"
        },
        {
          "name": "age",
          "type": "uint8"
        }
      ],
      "payable": false,
      "stateMutability": "nonpayable",
      "type": "constructor",
      "signature": "constructor"
    },
    {
      "constant": false,
      "inputs": [
        {
          "name": "name",
          "type": "string"
        },
        {
          "name": "age",
          "type": "uint8"
        }
      ],
      "name": "setOwnerInfo",
      "outputs": [],
      "payable": false,
      "stateMutability": "nonpayable",
      "type": "function",
      "signature": "0xd5f7c53b"
    },
    {
      "constant": true,
      "inputs": [],
      "name": "getOwnerInfo",
      "outputs": [
        {
          "name": "name",
          "type": "string"
        },
        {
          "name": "age",
          "type": "uint8"
        }
      ],
      "payable": false,
      "stateMutability": "view",
      "type": "function",
      "signature": "0xfacf8323"
    },
    {
      "constant": true,
      "inputs": [],
      "name": "getOwnerName",
      "outputs": [
        {
          "name": "",
          "type": "string"
        }
      ],
      "payable": false,
      "stateMutability": "view",
      "type": "function",
      "signature": "0x145ef6e9"
    },
    {
      "constant": true,
      "inputs": [],
      "name": "getOwnerAge",
      "outputs": [
        {
          "name": "age",
          "type": "uint8"
        }
      ],
      "payable": false,
      "stateMutability": "view",
      "type": "function",
      "signature": "0xbadbcfe8"
    }
  ],
  "bytecode": "0x608060405234801561001057600080fd5b506040516106903803806106908339810180604052604081101561003357600080fd5b81019080805164010000000081111561004b57600080fd5b8281019050602081018481111561006157600080fd5b815185600182028301116401000000008211171561007e57600080fd5b50509291906020018051906020019092919050505081600090805190602001906100a99291906100cc565b5080600160006101000a81548160ff021916908360ff1602179055505050610171565b828054600181600116156101000203166002900490600052602060002090601f016020900481019282601f1061010d57805160ff191683800117855561013b565b8280016001018555821561013b579182015b8281111561013a57825182559160200191906001019061011f565b5b509050610148919061014c565b5090565b61016e91905b8082111561016a576000816000905550600101610152565b5090565b90565b610510806101806000396000f3fe608060405260043610610062576000357c0100000000000000000000000000000000000000000000000000000000900463ffffffff168063145ef6e914610067578063badbcfe8146100f7578063d5f7c53b14610128578063facf8323146101fd575b600080fd5b34801561007357600080fd5b5061007c61029a565b6040518080602001828103825283818151815260200191508051906020019080838360005b838110156100bc5780820151818401526020810190506100a1565b50505050905090810190601f1680156100e95780820380516001836020036101000a031916815260200191505b509250505060405180910390f35b34801561010357600080fd5b5061010c61033c565b604051808260ff1660ff16815260200191505060405180910390f35b34801561013457600080fd5b506101fb6004803603604081101561014b57600080fd5b810190808035906020019064010000000081111561016857600080fd5b82018360208201111561017a57600080fd5b8035906020019184600183028401116401000000008311171561019c57600080fd5b91908080601f016020809104026020016040519081016040528093929190818152602001838380828437600081840152601f19601f820116905080830192505050505050509192919290803560ff169060200190929190505050610353565b005b34801561020957600080fd5b50610212610389565b60405180806020018360ff1660ff168152602001828103825284818151815260200191508051906020019080838360005b8381101561025e578082015181840152602081019050610243565b50505050905090810190601f16801561028b5780820380516001836020036101000a031916815260200191505b50935050505060405180910390f35b606060008054600181600116156101000203166002900480601f0160208091040260200160405190810160405280929190818152602001828054600181600116156101000203166002900480156103325780601f1061030757610100808354040283529160200191610332565b820191906000526020600020905b81548152906001019060200180831161031557829003601f168201915b5050505050905090565b6000600160009054906101000a900460ff16905090565b816000908051906020019061036992919061043f565b5080600160006101000a81548160ff021916908360ff1602179055505050565b60606000808054600181600116156101000203166002900480601f0160208091040260200160405190810160405280929190818152602001828054600181600116156101000203166002900480156104225780601f106103f757610100808354040283529160200191610422565b820191906000526020600020905b81548152906001019060200180831161040557829003601f168201915b50505050509150600160009054906101000a900460ff1690509091565b828054600181600116156101000203166002900490600052602060002090601f016020900481019282601f1061048057805160ff19168380011785556104ae565b828001600101855582156104ae579182015b828111156104ad578251825591602001919060010190610492565b5b5090506104bb91906104bf565b5090565b6104e191905b808211156104dd5760008160009055506001016104c5565b5090565b9056fea165627a7a723058207b2ddd5edecfeae7ffc980a570e7ab9847a4e67238d6e8d4e36530190ec2a5720029",
  "source": "pragma solidity >=0.4.24;\n\ncontract FunctionsContract {\n\n    string ownerName;\n    uint8  ownerAge;\n\n    // Constructor\n    constructor (string memory name, uint8 age) public {\n        ownerName = name;\n        ownerAge = age;\n    }\n\n    // We are changing the owner name and age\n    function setOwnerInfo(string memory name, uint8 age) public {\n        ownerName = name;\n        ownerAge = age;\n    }\n\n    function secretFunction() private pure {\n        // Not available outside this contract\n    }\n\n    // Get owner name and age\n    function  getOwnerInfo() public view returns (string memory name, uint8 age){\n        name = ownerName;\n        age = ownerAge;\n    }\n\n    // Get the name\n    // 2 ways to return values from a function\n    function getOwnerName() public view returns (string memory) {\n        return ownerName;\n    }\n\n    // Get the age\n    function getOwnerAge() public view returns (uint8 age){\n        age = ownerAge;\n    }\n}\n",
  "sourcePath": "/Users/jose.morales/Documents/Blockchain/Content/solidity/contracts/FunctionsContract.sol",
  "compiler": {
    "name": "solc",
    "version": "0.5.0+commit.1d4f565a.Emscripten.clang"
  },
  "schemaVersion": "3.0.1",
  "updatedAt": "2019-01-30T13:54:57.910Z",
  "devdoc": {
    "methods": {}
  },
  "userdoc": {
    "methods": {}
  }
}