{
  "contractName": "GlobalVariables",
  "abi": [
    {
      "constant": true,
      "inputs": [],
      "name": "lastCaller",
      "outputs": [
        {
          "name": "",
          "type": "string"
        }
      ],
      "payable": false,
      "stateMutability": "view",
      "type": "function",
      "signature": "0x2113522a"
    },
    {
      "constant": true,
      "inputs": [],
      "name": "etherUnitsTest",
      "outputs": [
        {
          "name": "",
          "type": "bool"
        }
      ],
      "payable": false,
      "stateMutability": "pure",
      "type": "function",
      "signature": "0x0c317438"
    },
    {
      "constant": true,
      "inputs": [],
      "name": "timeUnits",
      "outputs": [
        {
          "name": "",
          "type": "uint256"
        }
      ],
      "payable": false,
      "stateMutability": "view",
      "type": "function",
      "signature": "0x91ac446b"
    },
    {
      "constant": true,
      "inputs": [],
      "name": "getBlockInformation",
      "outputs": [
        {
          "name": "number",
          "type": "uint256"
        },
        {
          "name": "hash",
          "type": "bytes32"
        },
        {
          "name": "coinbase",
          "type": "address"
        },
        {
          "name": "difficulty",
          "type": "uint256"
        }
      ],
      "payable": false,
      "stateMutability": "view",
      "type": "function",
      "signature": "0xde7066f1"
    },
    {
      "constant": true,
      "inputs": [],
      "name": "getMsgInformation",
      "outputs": [
        {
          "name": "data",
          "type": "bytes"
        },
        {
          "name": "sig",
          "type": "bytes4"
        },
        {
          "name": "sender",
          "type": "address"
        }
      ],
      "payable": false,
      "stateMutability": "view",
      "type": "function",
      "signature": "0x8e663b06"
    }
  ],
  "bytecode": "0x60806040526040805190810160405280600781526020017f6e6f742d736574000000000000000000000000000000000000000000000000008152506000908051906020019061004f929190610062565b5034801561005c57600080fd5b50610107565b828054600181600116156101000203166002900490600052602060002090601f016020900481019282601f106100a357805160ff19168380011785556100d1565b828001600101855582156100d1579182015b828111156100d05782518255916020019190600101906100b5565b5b5090506100de91906100e2565b5090565b61010491905b808211156101005760008160009055506001016100e8565b5090565b90565b610469806101166000396000f3fe60806040526004361061006d576000357c0100000000000000000000000000000000000000000000000000000000900463ffffffff1680630c317438146100725780632113522a146100a15780638e663b061461013157806391ac446b14610239578063de7066f114610264575b600080fd5b34801561007e57600080fd5b506100876102d0565b604051808215151515815260200191505060405180910390f35b3480156100ad57600080fd5b506100b66102e7565b6040518080602001828103825283818151815260200191508051906020019080838360005b838110156100f65780820151818401526020810190506100db565b50505050905090810190601f1680156101235780820380516001836020036101000a031916815260200191505b509250505060405180910390f35b34801561013d57600080fd5b50610146610385565b6040518080602001847bffffffffffffffffffffffffffffffffffffffffffffffffffffffff19167bffffffffffffffffffffffffffffffffffffffffffffffffffffffff191681526020018373ffffffffffffffffffffffffffffffffffffffff1673ffffffffffffffffffffffffffffffffffffffff168152602001828103825285818151815260200191508051906020019080838360005b838110156101fc5780820151818401526020810190506101e1565b50505050905090810190601f1680156102295780820380516001836020036101000a031916815260200191505b5094505050505060405180910390f35b34801561024557600080fd5b5061024e610401565b6040518082815260200191505060405180910390f35b34801561027057600080fd5b50610279610421565b604051808581526020018481526020018373ffffffffffffffffffffffffffffffffffffffff1673ffffffffffffffffffffffffffffffffffffffff16815260200182815260200194505050505060405180910390f35b600080670de0b6b3a7640000801490508091505090565b60008054600181600116156101000203166002900480601f01602080910402602001604051908101604052809291908181526020018280546001816001161561010002031660029004801561037d5780601f106103525761010080835404028352916020019161037d565b820191906000526020600020905b81548152906001019060200180831161036057829003601f168201915b505050505081565b60606000806000368080601f016020809104026020016040519081016040528093929190818152602001838380828437600081840152601f19601f8201169050808301925050505050505092506000357fffffffff00000000000000000000000000000000000000000000000000000000169150339050909192565b6000804290506305265c0081141561041c578091505061041e565b505b90565b600080600080439350600184034092504191504490509091929356fea165627a7a72305820c2928ac95b3d63bfa102e00c5e334adc4d3443f7cf9d2725ef67a69b733234c00029",
  "source": "pragma solidity >=0.4.24;\n\ncontract GlobalVariables {\n\n    string  public lastCaller = \"not-set\";\n\n    // Demonstrates the use of the ether subdenominations\n    function etherUnitsTest() public pure returns(bool) {\n        // True\n        bool value = (1 ether == 1000 finney);\n        return value;\n    }\n\n    // Demonstrates the use of the time units\n    function  timeUnits() public view returns (uint) {\n        uint timeNow = now; //storing current time using now\n        //returns block time in seconds since 1970\n        if (timeNow == 1000 days) { // converting 1000 literal to days, using the suffix days\n            return timeNow;\n        }\n    }\n\n    // Demonstrates the use of block object\n    function  getBlockInformation() public view returns (uint number, bytes32 hash, address coinbase, uint difficulty) {\n        number = block.number; // Previous block\n        hash = blockhash(number - 1); // -1 because excluding current...same as block.blockhash()\n        // Current block\n        coinbase = block.coinbase;\n        difficulty = block.difficulty;\n    }\n\n    // Demonstrates the use of the msg object\n    function getMsgInformation() public view returns (bytes memory data, bytes4 sig, address sender) {\n        data = msg.data;\n        sig = msg.sig;\n        sender = msg.sender;\n    }\n\n}",
  "sourcePath": "/Users/jose.morales/Documents/Blockchain/Content/solidity/contracts/GlobalVariables.sol",
  "compiler": {
    "name": "solc",
    "version": "0.5.0+commit.1d4f565a.Emscripten.clang"
  },
  "schemaVersion": "3.0.1",
  "updatedAt": "2019-01-30T13:54:57.912Z",
  "devdoc": {
    "methods": {}
  },
  "userdoc": {
    "methods": {}
  }
}