{
  "contractName": "InheritanceContract",
  "abi": [
    {
      "constant": false,
      "inputs": [
        {
          "name": "amount",
          "type": "uint256"
        }
      ],
      "name": "withdraw",
      "outputs": [],
      "payable": false,
      "stateMutability": "nonpayable",
      "type": "function",
      "signature": "0x2e1a7d4d"
    },
    {
      "constant": true,
      "inputs": [],
      "name": "value",
      "outputs": [
        {
          "name": "",
          "type": "uint256"
        }
      ],
      "payable": false,
      "stateMutability": "view",
      "type": "function",
      "signature": "0x3fa4f245"
    },
    {
      "constant": true,
      "inputs": [],
      "name": "contractName",
      "outputs": [
        {
          "name": "",
          "type": "string"
        }
      ],
      "payable": false,
      "stateMutability": "view",
      "type": "function",
      "signature": "0x75d0c0dc"
    },
    {
      "constant": false,
      "inputs": [
        {
          "name": "amount",
          "type": "uint256"
        }
      ],
      "name": "deposit",
      "outputs": [],
      "payable": false,
      "stateMutability": "nonpayable",
      "type": "function",
      "signature": "0xb6b55f25"
    },
    {
      "inputs": [
        {
          "name": "_n",
          "type": "string"
        }
      ],
      "payable": false,
      "stateMutability": "nonpayable",
      "type": "constructor",
      "signature": "constructor"
    },
    {
      "constant": true,
      "inputs": [],
      "name": "getValue",
      "outputs": [
        {
          "name": "",
          "type": "uint256"
        }
      ],
      "payable": false,
      "stateMutability": "view",
      "type": "function",
      "signature": "0x20965255"
    },
    {
      "constant": false,
      "inputs": [
        {
          "name": "amount",
          "type": "uint256"
        },
        {
          "name": "_address",
          "type": "address"
        }
      ],
      "name": "sendMoney",
      "outputs": [
        {
          "name": "",
          "type": "bool"
        }
      ],
      "payable": false,
      "stateMutability": "nonpayable",
      "type": "function",
      "signature": "0x062a7544"
    }
  ],
  "bytecode": "0x608060405234801561001057600080fd5b506040516105173803806105178339810180604052602081101561003357600080fd5b81019080805164010000000081111561004b57600080fd5b8281019050602081018481111561006157600080fd5b815185600182028301116401000000008211171561007e57600080fd5b50509291905050506064808060008190555050806001819055505080600290805190602001906100af9291906100b6565b505061015b565b828054600181600116156101000203166002900490600052602060002090601f016020900481019282601f106100f757805160ff1916838001178555610125565b82800160010185558215610125579182015b82811115610124578251825591602001919060010190610109565b5b5090506101329190610136565b5090565b61015891905b8082111561015457600081600090555060010161013c565b5090565b90565b6103ad8061016a6000396000f3fe608060405260043610610078576000357c0100000000000000000000000000000000000000000000000000000000900463ffffffff168063062a75441461007d57806320965255146100f05780632e1a7d4d1461011b5780633fa4f2451461015657806375d0c0dc14610181578063b6b55f2514610211575b600080fd5b34801561008957600080fd5b506100d6600480360360408110156100a057600080fd5b8101908080359060200190929190803573ffffffffffffffffffffffffffffffffffffffff16906020019092919050505061024c565b604051808215151515815260200191505060405180910390f35b3480156100fc57600080fd5b506101056102a3565b6040518082815260200191505060405180910390f35b34801561012757600080fd5b506101546004803603602081101561013e57600080fd5b81019080803590602001909291905050506102ad565b005b34801561016257600080fd5b5061016b6102c0565b6040518082815260200191505060405180910390f35b34801561018d57600080fd5b506101966102c6565b6040518080602001828103825283818151815260200191508051906020019080838360005b838110156101d65780820151818401526020810190506101bb565b50505050905090810190601f1680156102035780820380516001836020036101000a031916815260200191505b509250505060405180910390f35b34801561021d57600080fd5b5061024a6004803603602081101561023457600080fd5b8101908080359060200190929190505050610364565b005b600061025782610377565b73ffffffffffffffffffffffffffffffffffffffff166108fc849081150290604051600060405180830381858888f1935050505015801561029c573d6000803e3d6000fd5b5092915050565b6000600154905090565b8060016000828254039250508190555050565b60005481565b60028054600181600116156101000203166002900480601f01602080910402602001604051908101604052809291908181526020018280546001816001161561010002031660029004801561035c5780601f106103315761010080835404028352916020019161035c565b820191906000526020600020905b81548152906001019060200180831161033f57829003601f168201915b505050505081565b8060016000828254019250508190555050565b600081905091905056fea165627a7a72305820bc9f90bc5769cdafc3d0e3705a77c36a3d3fa608ecd22e55627ec54812f94f530029",
  "source": "pragma solidity >=0.4.24;\n\nimport \"./MainContract.sol\";\n\n// We have an ContractInterface, that has a function\n// sendmoney...but there is no function body\ninterface ContractInterface {\n    function sendMoney (uint amount, address _address) external returns (bool);\n}\n\n// This is a BaseContract, that has its constructor, and deposit and withdraw functions...\ncontract BaseContract {\n\n    uint public value;\n\n    // Anytime base contract has a constructor, we will need to initialize this using\n    // the derived contracts constructor function\n\n    constructor (uint amount) public {\n        value = amount;\n    }\n\n    function deposit (uint amount) public {\n        value += amount;\n    }\n\n    function withdraw (uint amount) public {\n        value -= amount;\n    }\n}\n\n// This shows multiple inheritance\n\n// This will give an error...since baseContract has a constructor that we need to initialize\n// contract myContract is baseContract, interfaceContract {\n\ncontract InheritanceContract is BaseContract(100), ContractInterface, MainContract(100) {\n\n    string public contractName;\n\n    constructor (string memory _n) public {\n        contractName = _n;\n    }\n    function getValue () public view returns (uint) {\n        return value;\n    }\n\n    // Function that allows you to convert an address into a payable address\n    function _make_payable(address x) internal pure returns (address payable) {\n        return address(uint160(x));\n    }\n\n    // This function has to be implemented, since it is unimplemented in the interfaceContract\n    function sendMoney (uint amount, address _address) public returns (bool) {\n        _make_payable(_address).transfer(amount);\n    }\n}\n",
  "sourcePath": "/Users/jose.morales/Documents/Blockchain/Content/solidity/contracts/InheritanceContract.sol",
  "compiler": {
    "name": "solc",
    "version": "0.5.0+commit.1d4f565a.Emscripten.clang"
  },
  "schemaVersion": "3.0.1",
  "updatedAt": "2019-01-30T13:54:57.913Z",
  "devdoc": {
    "methods": {}
  },
  "userdoc": {
    "methods": {}
  }
}