{
  "contractName": "MainContract",
  "abi": [
    {
      "inputs": [
        {
          "name": "amount",
          "type": "uint256"
        }
      ],
      "payable": false,
      "stateMutability": "nonpayable",
      "type": "constructor",
      "signature": "constructor"
    },
    {
      "constant": false,
      "inputs": [
        {
          "name": "amount",
          "type": "uint256"
        }
      ],
      "name": "deposit",
      "outputs": [],
      "payable": false,
      "stateMutability": "nonpayable",
      "type": "function",
      "signature": "0xb6b55f25"
    },
    {
      "constant": false,
      "inputs": [
        {
          "name": "amount",
          "type": "uint256"
        }
      ],
      "name": "withdraw",
      "outputs": [],
      "payable": false,
      "stateMutability": "nonpayable",
      "type": "function",
      "signature": "0x2e1a7d4d"
    }
  ],
  "bytecode": "0x608060405234801561001057600080fd5b506040516020806101648339810180604052602081101561003057600080fd5b8101908080519060200190929190505050806000819055505061010c806100586000396000f3fe6080604052600436106049576000357c0100000000000000000000000000000000000000000000000000000000900463ffffffff1680632e1a7d4d14604e578063b6b55f25146085575b600080fd5b348015605957600080fd5b50608360048036036020811015606e57600080fd5b810190808035906020019092919050505060bc565b005b348015609057600080fd5b5060ba6004803603602081101560a557600080fd5b810190808035906020019092919050505060ce565b005b80600080828254039250508190555050565b8060008082825401925050819055505056fea165627a7a723058208adae393227998d687dbbbd46a0cdccf5cf29c69172c74faf1f60621f54f04b90029",
  "source": "pragma solidity >=0.4.24;\n\ncontract MainContract {\n\n    uint internal value;\n\n    constructor (uint amount) public {\n        value = amount;\n    }\n\n    function deposit (uint amount) public {\n        value += amount;\n    }\n\n    function withdraw (uint amount) public {\n        value -= amount;\n    }\n}\n",
  "sourcePath": "/Users/jose.morales/Documents/Blockchain/Content/solidity/contracts/MainContract.sol",
  "compiler": {
    "name": "solc",
    "version": "0.5.0+commit.1d4f565a.Emscripten.clang"
  },
  "schemaVersion": "3.0.1",
  "updatedAt": "2019-01-30T13:54:57.903Z",
  "devdoc": {
    "methods": {}
  },
  "userdoc": {
    "methods": {}
  }
}