{
  "contractName": "MappingsContract",
  "abi": [
    {
      "constant": false,
      "inputs": [
        {
          "name": "name",
          "type": "string"
        },
        {
          "name": "relation",
          "type": "string"
        }
      ],
      "name": "addRelation",
      "outputs": [],
      "payable": false,
      "stateMutability": "nonpayable",
      "type": "function",
      "signature": "0x5169a70d"
    },
    {
      "constant": true,
      "inputs": [
        {
          "name": "name",
          "type": "string"
        }
      ],
      "name": "getRelation",
      "outputs": [
        {
          "name": "",
          "type": "string"
        }
      ],
      "payable": false,
      "stateMutability": "view",
      "type": "function",
      "signature": "0xf31907b7"
    },
    {
      "constant": false,
      "inputs": [
        {
          "name": "name",
          "type": "string"
        }
      ],
      "name": "removeRelation",
      "outputs": [],
      "payable": false,
      "stateMutability": "nonpayable",
      "type": "function",
      "signature": "0x6d6e409a"
    }
  ],
  "bytecode": "0x608060405234801561001057600080fd5b506106e8806100206000396000f3fe608060405260043610610057576000357c0100000000000000000000000000000000000000000000000000000000900463ffffffff1680635169a70d1461005c5780636d6e409a146101bb578063f31907b714610283575b600080fd5b34801561006857600080fd5b506101b96004803603604081101561007f57600080fd5b810190808035906020019064010000000081111561009c57600080fd5b8201836020820111156100ae57600080fd5b803590602001918460018302840111640100000000831117156100d057600080fd5b91908080601f016020809104026020016040519081016040528093929190818152602001838380828437600081840152601f19601f8201169050808301925050505050505091929192908035906020019064010000000081111561013357600080fd5b82018360208201111561014557600080fd5b8035906020019184600183028401116401000000008311171561016757600080fd5b91908080601f016020809104026020016040519081016040528093929190818152602001838380828437600081840152601f19601f8201169050808301925050505050505091929192905050506103c4565b005b3480156101c757600080fd5b50610281600480360360208110156101de57600080fd5b81019080803590602001906401000000008111156101fb57600080fd5b82018360208201111561020d57600080fd5b8035906020019184600183028401116401000000008311171561022f57600080fd5b91908080601f016020809104026020016040519081016040528093929190818152602001838380828437600081840152601f19601f820116905080830192505050505050509192919290505050610448565b005b34801561028f57600080fd5b50610349600480360360208110156102a657600080fd5b81019080803590602001906401000000008111156102c357600080fd5b8201836020820111156102d557600080fd5b803590602001918460018302840111640100000000831117156102f757600080fd5b91908080601f016020809104026020016040519081016040528093929190818152602001838380828437600081840152601f19601f8201169050808301925050505050505091929192905050506104c2565b6040518080602001828103825283818151815260200191508051906020019080838360005b8381101561038957808201518184015260208101905061036e565b50505050905090810190601f1680156103b65780820380516001836020036101000a031916815260200191505b509250505060405180910390f35b806000836040518082805190602001908083835b6020831015156103fd57805182526020820191506020810190506020830392506103d8565b6001836020036101000a038019825116818451168082178552505050505050905001915050908152602001604051809103902090805190602001906104439291906105cf565b505050565b6000816040518082805190602001908083835b602083101515610480578051825260208201915060208101905060208303925061045b565b6001836020036101000a038019825116818451168082178552505050505050905001915050908152602001604051809103902060006104bf919061064f565b50565b60606000826040518082805190602001908083835b6020831015156104fc57805182526020820191506020810190506020830392506104d7565b6001836020036101000a03801982511681845116808217855250505050505090500191505090815260200160405180910390208054600181600116156101000203166002900480601f0160208091040260200160405190810160405280929190818152602001828054600181600116156101000203166002900480156105c35780601f10610598576101008083540402835291602001916105c3565b820191906000526020600020905b8154815290600101906020018083116105a657829003601f168201915b50505050509050919050565b828054600181600116156101000203166002900490600052602060002090601f016020900481019282601f1061061057805160ff191683800117855561063e565b8280016001018555821561063e579182015b8281111561063d578251825591602001919060010190610622565b5b50905061064b9190610697565b5090565b50805460018160011615610100020316600290046000825580601f106106755750610694565b601f0160209004906000526020600020908101906106939190610697565b5b50565b6106b991905b808211156106b557600081600090555060010161069d565b5090565b9056fea165627a7a72305820d3af61148b260fa41cfe6200cfc70e6cb13c5109cc8875680322c26b954c60280029",
  "source": "pragma solidity >=0.4.24;\n\ncontract MappingsContract {\n    // Creates in Storage\n    mapping(string => string) relations;\n\n    // Add a relation\n    function addRelation(string memory name, string memory relation) public {\n        // Store the relation\n        relations[name] = relation;\n    }\n\n    // Returns a Relation\n    function getRelation(string memory name) public view returns (string memory){\n        return relations[name];\n    }\n\n    // Remove the key value pair from the mapping\n    function removeRelation(string memory name) public {\n        delete(relations[name]);\n    }\n}",
  "sourcePath": "/Users/jose.morales/Documents/Blockchain/Content/solidity/contracts/MappingsContract.sol",
  "compiler": {
    "name": "solc",
    "version": "0.5.0+commit.1d4f565a.Emscripten.clang"
  },
  "schemaVersion": "3.0.1",
  "updatedAt": "2019-01-30T13:54:57.905Z",
  "devdoc": {
    "methods": {}
  },
  "userdoc": {
    "methods": {}
  }
}