{
  "contractName": "StringBytes",
  "abi": [
    {
      "constant": true,
      "inputs": [],
      "name": "conversionTest",
      "outputs": [
        {
          "name": "",
          "type": "string"
        }
      ],
      "payable": false,
      "stateMutability": "pure",
      "type": "function",
      "signature": "0x92a33630"
    },
    {
      "constant": true,
      "inputs": [
        {
          "name": "index",
          "type": "uint256"
        }
      ],
      "name": "getElementAt",
      "outputs": [
        {
          "name": "",
          "type": "bytes1"
        }
      ],
      "payable": false,
      "stateMutability": "view",
      "type": "function",
      "signature": "0xd8a865f6"
    },
    {
      "constant": true,
      "inputs": [],
      "name": "stringExamples",
      "outputs": [
        {
          "name": "",
          "type": "string"
        }
      ],
      "payable": false,
      "stateMutability": "pure",
      "type": "function",
      "signature": "0x1d201aaf"
    }
  ],
  "bytecode": "0x60806040526040805190810160405280600781526020017f74657374696e67000000000000000000000000000000000000000000000000008152506004908051906020019061004f929190610062565b5034801561005c57600080fd5b50610107565b828054600181600116156101000203166002900490600052602060002090601f016020900481019282601f106100a357805160ff19168380011785556100d1565b828001600101855582156100d1579182015b828111156100d05782518255916020019190600101906100b5565b5b5090506100de91906100e2565b5090565b61010491905b808211156101005760008160009055506001016100e8565b5090565b90565b6103cd806101166000396000f3fe608060405260043610610057576000357c0100000000000000000000000000000000000000000000000000000000900463ffffffff1680631d201aaf1461005c57806392a33630146100ec578063d8a865f61461017c575b600080fd5b34801561006857600080fd5b5061007161020f565b6040518080602001828103825283818151815260200191508051906020019080838360005b838110156100b1578082015181840152602081019050610096565b50505050905090810190601f1680156100de5780820380516001836020036101000a031916815260200191505b509250505060405180910390f35b3480156100f857600080fd5b50610101610251565b6040518080602001828103825283818151815260200191508051906020019080838360005b83811015610141578082015181840152602081019050610126565b50505050905090810190601f16801561016e5780820380516001836020036101000a031916815260200191505b509250505060405180910390f35b34801561018857600080fd5b506101b56004803603602081101561019f57600080fd5b8101908080359060200190929190505050610299565b60405180827effffffffffffffffffffffffffffffffffffffffffffffffffffffffffffff19167effffffffffffffffffffffffffffffffffffffffffffffffffffffffffffff1916815260200191505060405180910390f35b6060806040805190810160405280600581526020017f616263646500000000000000000000000000000000000000000000000000000081525090508091505090565b6060806040805190810160405280600781526020017f556461636974790000000000000000000000000000000000000000000000000081525090506060819050809250505090565b6000606060048054600181600116156101000203166002900480601f0160208091040260200160405190810160405280929190818152602001828054600181600116156101000203166002900480156103335780601f1061030857610100808354040283529160200191610333565b820191906000526020600020905b81548152906001019060200180831161031657829003601f168201915b505050505090506000818481518110151561034a57fe5b9060200101517f010000000000000000000000000000000000000000000000000000000000000090047f0100000000000000000000000000000000000000000000000000000000000000029050809250505091905056fea165627a7a72305820129e89ce8df11c3daf965a4417707e8543c95c08b5817a25ac2331f90741e4e80029",
  "source": "pragma solidity >=0.4.24;\n\ncontract StringBytes {\n    // Static byte arrays, Both declarations will create array with 3 byte elements\n    byte[3] fixedByteArray; // The type byte[] is an array of bytes, but due to padding rules, \n                            //it wastes 31 bytes of space for each element (except in storage). \n                            //It is better to use the bytes type instead.\n    bytes3 bytes3Array;\n    // Dynamic bytes arrays\n    byte[] dynamicByteArray;\n    bytes bytesArray;\n    // String variable\n    string    string1 = \"testing\";\n\n    // Converts the bytes type to string type\n    function conversionTest() public pure returns(string memory) {\n        bytes   memory string2 = \"Udacity\"; // dynamic memory bytes type\n        string  memory converted = string(string2);\n        return converted;\n    }\n\n    // Retrieves the element at specified index\n    // Cannot do with strings, hence converting to bytes\n    function  getElementAt(uint index) public view returns(byte) {\n        // Convert string to bytes\n        bytes  memory bytesData = bytes(string1);\n        // Get the element at the specified index\n        byte   element = bytesData[index];\n        return element;\n    }\n\n    function  testing() internal pure {\n        // uint8 need to be explicitly converted to byte type\n        // Converting to byte type, since fixedByteArray\n        // is a byte type array\n        // Assignment NOT allowed as bytes3 Array is a static Array\n        // is readonly\n        // bytes3Array[0] = 1;\n        // Memory dynamic bytes Array\n        bytes memory memoryBytes; // dynamic memory array\n        memoryBytes = new bytes(20); //allocating memory\n        memoryBytes[0] = \"a\";\n        // Push will give compiler error as push() allowed for storage only\n        //memoryBytes.push('c');\n    }\n\n    function stringExamples() public pure returns(string memory) {\n        string memory string3 = \"abcde\";  // string array in memory\n        return string3;\n    }\n}\n",
  "sourcePath": "/Users/jose.morales/Documents/Blockchain/Content/solidity/contracts/StringBytes.sol",
  "compiler": {
    "name": "solc",
    "version": "0.5.0+commit.1d4f565a.Emscripten.clang"
  },
  "schemaVersion": "3.0.1",
  "updatedAt": "2019-01-30T13:54:57.911Z",
  "devdoc": {
    "methods": {}
  },
  "userdoc": {
    "methods": {}
  }
}