{
  "contractName": "StructsContract",
  "abi": [
    {
      "constant": true,
      "inputs": [
        {
          "name": "name",
          "type": "bytes32"
        }
      ],
      "name": "getName",
      "outputs": [
        {
          "name": "",
          "type": "bytes32"
        },
        {
          "name": "",
          "type": "uint8"
        },
        {
          "name": "",
          "type": "uint16"
        }
      ],
      "payable": false,
      "stateMutability": "view",
      "type": "function",
      "signature": "0x54b8d5e3"
    },
    {
      "constant": false,
      "inputs": [
        {
          "name": "_lastName",
          "type": "bytes32"
        },
        {
          "name": "_value",
          "type": "uint8"
        },
        {
          "name": "_age",
          "type": "uint16"
        }
      ],
      "name": "addName",
      "outputs": [
        {
          "name": "",
          "type": "bool"
        }
      ],
      "payable": false,
      "stateMutability": "nonpayable",
      "type": "function",
      "signature": "0x6af75d2a"
    }
  ],
  "bytecode": "0x608060405234801561001057600080fd5b50610336806100206000396000f3fe60806040526004361061004c576000357c0100000000000000000000000000000000000000000000000000000000900463ffffffff16806354b8d5e3146100515780636af75d2a146100bc575b600080fd5b34801561005d57600080fd5b5061008a6004803603602081101561007457600080fd5b810190808035906020019092919050505061012a565b604051808481526020018360ff1660ff1681526020018261ffff1661ffff168152602001935050505060405180910390f35b3480156100c857600080fd5b50610110600480360360608110156100df57600080fd5b8101908080359060200190929190803560ff169060200190929190803561ffff169060200190929190505050610219565b604051808215151515815260200191505060405180910390f35b600080600080600090505b6000805490508160ff1610156102105760008160ff1681548110151561015757fe5b9060005260206000209060020201600001548514156102035760008160ff1681548110151561018257fe5b90600052602060002090600202016000015460008260ff168154811015156101a657fe5b906000526020600020906002020160010160009054906101000a900460ff1660008360ff168154811015156101d757fe5b906000526020600020906002020160010160019054906101000a900461ffff1693509350935050610212565b8080600101915050610135565b505b9193909250565b60006102236102de565b8481600001818152505083816020019060ff16908160ff168152505082816040019061ffff16908161ffff1681525050600081908060018154018082558091505090600182039060005260206000209060020201600090919290919091506000820151816000015560208201518160010160006101000a81548160ff021916908360ff16021790555060408201518160010160016101000a81548161ffff021916908361ffff16021790555050505060019150509392505050565b60606040519081016040528060008019168152602001600060ff168152602001600061ffff168152509056fea165627a7a72305820479f1c0b9dd040fcc455239a4f3ec45fc40e24086898ebe06182341816f14b550029",
  "source": "pragma solidity >=0.4.24;\n\ncontract StructsContract {\n\n    // Family\n    struct Family {\n        bytes32 lastName;\n        uint8 houseNo;\n        uint16 age;\n    }\n\n    // Creating an array of type family..which is a struct\n    Family[] myFamily;\n\n    // Getting a lastName, and returning complete\n    // family details\n    // We cannot compare 2 strings in solidity...\n    function getName(bytes32 name) public view returns (bytes32, uint8, uint16) {\n        // Search the array\n        for(uint8 i = 0; i < myFamily.length; i++){\n            if(name == myFamily[i].lastName) {\n                return (myFamily[i].lastName,uint8(myFamily[i].houseNo), myFamily[i].age);\n            }\n        }\n    }\n\n    // Structs Cannot be passed as argument so we are passing all elements/attributes of struct as args\n    function addName(bytes32 _lastName, uint8 _value, uint16 _age) public returns (bool) {\n        // Declare the struct variable in memory...\n        Family memory newFamily;\n        //  use the . notation to access members of a struct\n        newFamily.lastName = _lastName;\n        newFamily.houseNo = _value;\n        newFamily.age = _age;\n        // Push the newFamily struct...into our myFamily array\n        myFamily.push(newFamily);\n        return true;\n    }\n}",
  "sourcePath": "/Users/jose.morales/Documents/Blockchain/Content/solidity/contracts/StructsContract.sol",
  "compiler": {
    "name": "solc",
    "version": "0.5.0+commit.1d4f565a.Emscripten.clang"
  },
  "schemaVersion": "3.0.1",
  "updatedAt": "2019-01-30T13:54:57.915Z",
  "devdoc": {
    "methods": {}
  },
  "userdoc": {
    "methods": {}
  }
}