{
  "contractName": "TypesConversion",
  "abi": [
    {
      "constant": false,
      "inputs": [],
      "name": "conversion",
      "outputs": [],
      "payable": false,
      "stateMutability": "nonpayable",
      "type": "function",
      "signature": "0x9311ca69"
    }
  ],
  "bytecode": "0x608060405260ff6000806101000a81548160ff021916908360ff160217905550348015602a57600080fd5b5060b7806100396000396000f3fe608060405260043610603f576000357c0100000000000000000000000000000000000000000000000000000000900463ffffffff1680639311ca69146044575b600080fd5b348015604f57600080fd5b5060566058565b005b60008060009054906101000a900460ff1660ff169050806000806101000a81548160ff021916908360ff1602179055505056fea165627a7a72305820d3130134844e0ebc77a2321922e91305f30b1a72533f8a1bcc25f96d973ab9f50029",
  "source": "pragma solidity >=0.4.24;\n\ncontract TypesConversion {\n    uint8 a = 255;              // a is 1 bytes unsigned integer\n    uint ownerInitialBalance;   // uint256\n\n    function conversion ( ) public {\n        int  b;        // b is 32 bytes signed integer...256 bits\n        b = a;         // Compilation successful, since a 8bytes type can easily fit in a 32bytes type\n        // a = b;      // Fails compilation as the maximum value of int256 cannot be accomodated in uint8\n        a = uint8(b);  // Explicit type coversion...converting a 32bytes to 1bytes\n    }\n}\n",
  "sourcePath": "/Users/jose.morales/Documents/Blockchain/Content/solidity/contracts/TypesConversion.sol",
  "compiler": {
    "name": "solc",
    "version": "0.5.0+commit.1d4f565a.Emscripten.clang"
  },
  "schemaVersion": "3.0.1",
  "updatedAt": "2019-01-30T13:54:57.902Z",
  "devdoc": {
    "methods": {}
  },
  "userdoc": {
    "methods": {}
  }
}